:03000000020006F5
:08001900E4F513F514020003E5
:0300030002039B5A
:10002100AE82AF8310990280FB8E998E828F8322DC
:1000310043B32053B4DFA2AF920075C7AA75C75569
:1000410075910143B32075C7AA75C755759100A273
:100051000092AF43B12053B2DFA2AF920075C7AA9D
:1000610075C75575910143B12075C7AA75C75575F7
:100071009100A20092AF43B11053B2EFA2AF920030
:1000810075C7AA75C75575910143B11075C7AA7592
:10009100C755759100A20092AF43B10853B2F7A2C0
:1000A100AF920075C7AA75C75575910143B108751F
:1000B100C7AA75C755759100A20092AF43B102530B
:1000C100B2FDA2AF920075C7AA75C75575910143DC
:1000D100B10275C7AA75C755759100A20092AF43C9
:1000E100B10153B2FEA2AF920075C7AA75C755758B
:1000F100910143B10175C7AA75C755759100A20059
:1001010092AF43B30153B4FEA2AF920075C7AA7573
:10011100C75575910143B30175C7AA75C755759147
:1001210000A20092AF43B30253B4FDA2AF92007597
:10013100C7AA75C75575910143B30275C7AA75C79B
:1001410055759100A20092AF43B30453B4FBA2AF23
:10015100920075C7AA75C75575910143B30475C758
:10016100AA75C755759100A20092AF43B30853B465
:10017100F7A2AF920075C7AA75C75575910143B330
:100181000875C7AA75C755759100A20092AF43B310
:100191001053B4EFA2AF920075C7AA75C7557591F8
:1001A1000143B31075C7AA75C755759100A2009296
:1001B100AF2290C20075F001E40203EBA295E43393
:1001C100FF8F08A285E433FF8F09A284E433FF8FF8
:1001D1000AA283E433FF8F0BA281E433FF8F0CA2C9
:1001E10080E433FF8F0DA290E433FF8F0EA291E4E0
:1001F10033FF8F0FA292E433FF8F10A293E433FFFA
:100201008F11A294E433FF8F12227E007F007D00C4
:10021100ED2408F98704BC01198DF005F07B017C00
:10022100008006EB2BFBEC33FCD5F0F7EB4206EC40
:1002310042070DBD0B0040D88E828F8322C013C0B0
:100241001474D8C0E0740FC0E07480C0E01206D905
:10025100E58124FBF581227F00EF2408F987067DE3
:1002610000C007C006C00574DDC0E0740FC0E074B3
:1002710080C0E01206D9E58124FBF581D007BF0AD1
:10028100005019C00774E0C0E0740FC0E07480C072
:10029100E01206D9158115811581D0070FBF0B001A
:1002A10040B774E2C0E0740FC0E07480C0E0120691
:1002B100D91581158115812274E5C0E0740FC0E064
:1002C1007480C0E01206D91581158115817F00BFA8
:1002D1000B005046EF2408F987067D00C007C006D1
:1002E100C00574DDC0E0740FC0E07480C0E0120688
:1002F100D9E58124FBF581D007BF0A005019C00759
:1003010074F2C0E0740FC0E07480C0E01206D91529
:100311008115811581D0070F80B5C013C01474F405
:10032100C0E0740FC0E07480C0E01206D9E58124FA
:10033100FBF581227F00EF2408F9E760067D317E1D
:100341000080047D307E00C007C005C0067406C071
:10035100E07410C0E07480C0E01206D9E58124FB8E
:10036100F581D0070FBF0B0040CC74E2C0E0740FE1
:10037100C0E07480C0E01206D91581158115812273
:10038100C013C0147409C0E07410C0E07480C0E0F0
:100391001206D9E58124FBF5812275B10075B20001
:1003A10075B30075B40075AC0075AD001200311263
:1003B10001B3900064E4F5F012053B7412C0E074DF
:1003C10010C0E07480C0E01206D915811581158135
:1003D1001201BD12020B8582138583141202B9909A
:0A03E1000064E4F5F012053B80E62D
:100FD80025750D0A0025750020000D0A007B227377
:100FE800656E736F7273223A5B002C005D2C227061
:100FF80061747465726E223A25757D0D0A00256349
:10100800004C3A253033580D0A004C696E6520466D
:101018006F6C6C6F77657220537461727465640DC0
:021028000A00BC
:1003EB00AC82AD83AEF0FF53B1BF53B2BF53B17FFD
:1003FB0053B27F759850438920438780438E1053A7
:10040B00C4DF8C178D188E198F1A90424075F00F20
:10041B00E412064CAC820CC3E49CF58DD28ED299BF
:10042B0022AC82AD83AEF0FF53B1BF53B2BF53B119
:10043B007F53B27F75985043878053C4F843C420D1
:10044B008C178D188E198F1A90424075F00FE4128D
:10045B00064CAC82AD83AEF0FF74FFC39C74FF9D62
:10046B00F9E49EE49F89C674FFC39CFC8CC543C40E
:10047B0008D299223098FD859982C29822AF82C208
:10048B00998F993099FD22AC82AD83AEF0FF53B1B9
:10049B00FB53B2FB53B3BF53B4BF75F85075C408CD
:1004AB0053C4DF8C178D188E198F1A90424075F03C
:1004BB000FE412064CAC82AD83AEF0FF74FFC39C0D
:1004CB0074FF9DF9E49EE49F89C674FFC39CFC8C6A
:1004DB00C543C4082230F8FD859A82C2F822AF8248
:1004EB00C2F98F9A30F9FD2275C7AA75C75575FDEC
:1004FB005A75C7AA75C75575FDA575820022AC82C2
:10050B00AD83AEF0FF538EF7438901D28CEC4D4E89
:10051B004F601A758A7E758CFF108D0280FB1CBC98
:10052B00FF091DBDFF051EBEFF011F80E0C28C220F
:10053B00AC82AD83AEF0FF538EF7438901D28CECC6
:10054B004D4E4F601A758ACA758CFA108D0280FB5E
:10055B001CBCFF091DBDFF051EBEFF011F80E0C2B5
:10056B008C22AC82AD83AEF0FF538EEF438910D259
:10057B008EEC4D4E4F601A758BEA758DCB108F023A
:10058B0080FB1CBCFF091DBDFF051EBEFF011F80AC
:10059B00E0C28E22AC82AD83AEF0FF53C9BF53C90C
:1005AB00DF43C910D2CAEC4D4E4F601A75CC307573
:1005BB00CDF810CF0280FB1CBCFF091DBDFF051E33
:1005CB00BEFF011F80E0C2CA22AC82AD83AEF0FF3A
:1005DB0075C40743C408EC4D4E4F602575C52C758B
:1005EB00C6CFAAC45302107B00BA10F6BB00F3535C
:1005FB00C4EF1CBCFF091DBDFF051EBEFF011F8004
:10060B00D553C4F722AC82AD83AEF0FF75C407435C
:10061B00C408EC4D4E4F602575C5D875C6FFAAC4EE
:10062B005302107B00BA10F6BB00F353C4EF1CBC93
:10063B00FF091DBDFF051EBEFF011F80D553C4F76B
:10064B0022FB7A20E4FCFDFEFFE5822582F582E5A4
:10065B008333F583E5F033F5F0EB33FB4017DAE941
:10066B008042E5822582F582E58333F583E5F0331D
:10067B00F5F0EB33FBEC33FCED33FDEE33FEEF33F8
:10068B00FFEC9517ED9518EE9519EF951A4013ECB5
:10069B009517FCED9518FDEE9519FEEF951AFF4396
:0606AB008201DABEEB2221
:06001300E478FFF6D8FDC1
:1006B100C0168581167E008E83120021D0162285F8
:1006C100823185833285F033E4F52EF52FF53085BF
:1006D10015349006B102079FC016E581F51624FB7B
:1006E100FF8F34E4F52EF52FF530E51624FBF8865F
:1006F100310886320886339006B112079FD0162240
:10070100AF82C024C025C02612070E8007C022C0B8
:10071100238F8222158115811581052CE4B52C02C8
:10072100052D22AF8274302FFF24C6500B74072F82
:10073100FFE52160034307208F82020701E582FF65
:10074100C4540FF582C007120724D007740F5FF558
:1007510082020724858217AB27AC28AD29AE2AAACD
:100761002B7519208A07EF2FF518EE235401451830
:10077100FAEB2BFBEC33FCED33FDEE33FEC3EA95D4
:10078100174008EAC39517FA430301E51914FF8FCF
:100791001970D18B278C288D298E2A8A2B2285824C
:1007A10022858323852E24852F25853026E4F52C6B
:1007B100F52DAD31AE32AF338D828E838FF0120FB6
:1007C100BCFC74012DF531E43EF5328F33ECFF7042
:1007D10003020F80BF25028003020F787E007D0097
:1007E1008E358E367A007B008E377C008E38E4F5AC
:1007F10040F5417539FF753AFF85314285324385B0
:1008010033448542828543838544F0120FBCF5450C
:10081100A3858242858343854231854332854433B2
:100821007425B54508854582120701808574D02558
:100831004540030208E1E54524C650030208E1747E
:10084100FFB53955B53A5285401785411890000AD0
:10085100C006C005C004C003C002120F9F858246B6
:10086100858347D002D003D004D005D00685454802
:10087100754900E5482546F548E5493547F549E517
:100881004824D0F540E54934FFF541E54045416054
:10089100030208037D01020803853917853A189080
:1008A100000AC006C005C004C003C002120F9F8524
:1008B1008248858349D002D003D004D005D0068573
:1008C1004546754700E5462548F548E5473549F56C
:1008D10049E54824D0F539E54934FFF53A020803E2
:1008E100742EB5451574FFB53905B53A028003027A
:1008F1000803E4F539F53A020803749F2545500EC3
:10090100E545248540085345DF75210180037521A4
:10091100007420B545030209AD742BB545030209E6
:10092100A7742DB5450280797442B545030209B318
:100931007443B545030209BE7444B54503020C0B6B
:100941007446B54503020C217448B54503020803FA
:100951007449B54503020C0B744AB54503020803FB
:10096100744CB545028050744FB54503020C1274A6
:1009710050B54503020B567453B545028076745445
:10098100B545030208037455B54503020C177458A5
:10099100B54503020C1C745AB54503020803020C49
:1009A100257E01020803753501020803753601022F
:1009B10008037B01020803753701020803EB600A93
:1009C100E53414F989348748800DE53424FEF54671
:1009D100854634A9468748854882C006C005C004BB
:1009E100C003C002120701D002D003D004D005D049
:1009F10006020C47E53424FDF548854834A94887AB
:100A01004209874309874419198542278543288567
:100A110044298542828543838544F0C006C005C0D0
:100A210004C003C002120F87858248858349D00222
:100A3100D003D004D005D00674FFB53909B53A0604
:100A410085483985493AEE704FC3E5489540E549F7
:100A510095415044E540C39548F546E5419549F532
:100A610047854642854743154674FFB546021547FB
:100A7100E5424543601C758220C006C005C004C024
:100A810003C002120701D002D003D004D005D00662
:100A910080CF854640854741853946853A47852738
:100AA100828528838529F0120FBCF54285423D607D
:100AB1004FC3E4954674808547F063F08095F0500C
:100AC1003F154674FFB546021547853D82C006C0F5
:100AD10005C004C003C002120701D002D003D00434
:100AE100D005D0068527428528438529440542E45F
:100AF100B542020543854227854328854429809EC6
:100B0100EE7003020C47C3E5489540E54995414025
:100B110003020C47E540C39548F548E5419549F581
:100B210049854846854947154874FFB54802154926
:100B3100E54645477003020C41758220C006C00599
:100B4100C004C003C002120701D002D003D004D0F8
:100B510005D00680CCE53424FDF546854634A9460A
:100B61008742098743098744191985422785432804
:100B710085442985293E7480253E5005754643806C
:100B81001974A0253E5005754650800E74C0253E4F
:100B910050057546498003754658854682C006C092
:100BA10005C004C003C00212070175823A12070191
:100BB100758230120701758278120701D002D003C5
:100BC100D004D005D0067449B5460280217450B5D1
:100BD1004602801A852882C006C005C004C003C031
:100BE1000212073ED002D003D004D005D0068527DB
:100BF10082C006C005C004C003C00212073ED00275
:100C0100D003D004D005D006803C7A0175380A8023
:100C110035753808803075380A802B753810802674
:100C21007C018022854582C006C005C004C003C086
:100C310002120701D002D003D004D005D0068006ED
:100C4100854840854941EC6068E53424FCFC8C34DE
:100C51008C01874A09874B09874C09874D19191956
:100C6100854A27854B28854C29854D2A75272A7564
:100C7100281075298085274A85284B85294C7401C0
:100C8100254AF542E4354BF543854C448542278599
:100C91004328854429854A82854B83854CF0120F70
:100CA100BCFC8C4A70030207B3854A82120701809B
:100CB100C4E53870030207B3EB603FE53414F989EA
:100CC1003487048C4A754B00754C00754D00854A7C
:100CD10027854B28854C29854D2AEA6003020D643E
:100CE10085274A754B00754C00754D00854A27854F
:100CF1004B28854C29854D2A8069E5376025E534E7
:100D010024FCFC8C348C01874A09874B09874C09E8
:100D1100874D191919854A27854B28854C29854DF9
:100D21002A8040E53424FEFC8C348C01870309873A
:100D310004198B4AECF54B3395E0F54CF54D854A9A
:100D410027854B28854C29854D2AEA701685274A27
:100D510085284BF54CF54D854A27854B28854C292F
:100D6100854D2AEA602AE52A30E723C3E49527F571
:100D71004AE49528F54BE49529F54CE4952AF54D7F
:100D8100854A27854B28854C29854D2A80027A0082
:100D91007C017953E4F54AF54B752B00853882C007
:100DA10006C005C004C002C001120755D001D0021F
:100DB100D004D005D006EC700DE52BC4F548E7FB57
:100DC1004548F7198002A72B054AE4B54A02054BAD
:100DD100ECB40100E433FCE52745284529452A7098
:100DE100B8893F854A3B854B3CE5404541700575D7
:100DF1004001F541ED7043EE704085404A85414B1D
:100E0100AB3B0B8B48754900C3E548954AE54995CD
:100E11004B5021758220C006C005C004C0021207D4
:100E210001D002D004D005D006154A74FFB54A029C
:100E3100154B80CC854A40854B41EA601D75822D5A
:100E4100C006C005C004120701D004D005D00615A4
:100E51004074FFB5400215418046E53B453C60408A
:100E6100E535601D75822BC006C005C0041207015F
:100E7100D004D005D006154074FFB540021541805D
:100E81001FE536601B758220C006C005C00412072D
:100E910001D004D005D006154074FFB540021541BC
:100EA100EE703C85404A85414BAA4AAB4B154A74CA
:100EB100FFB54A02154BC3E53B9AE53C9B5041ED1A
:100EC10060067A307B0080047A207B008A82C0062B
:100ED100C005C004120701D004D005D00680CAC3E2
:100EE100E53B9540E53C9541500FE540C3953BF509
:100EF10048E541953CF549800DE4F548F549800602
:100F0100854A48854B49A93F853B4A853C4BAA4ABE
:100F1100AD4B154A74FFB54A02154BEA4D602EECF4
:100F2100B40100E433FC700A09E7C4540FFD8D2BB2
:100F310080078705740F5DF52B852B82C006C004E1
:100F4100C001120724D001D004D00680C1EE700385
:100F51000207B3AD48AE498D038E041DBDFF011ECE
:100F6100EB4C70030207B3758220C006C00512075F
:100F710001D005D00680E08F821207010207B385F8
:060F81002C82852D832265
:0B102A003C4E4F20464C4F41543E000E
:100F8700AA82AB83120FBC6003A380F8C3E5829AE1
:100F9700F582E5839BF58322E5828517F0A4C58258
:100FA700C0F08518F0A4D0F025F0C5838517F0A40C
:050FB7002583F58322F3
:0D0006007581531204F3E5826003020003CC
:100FBC0020F71430F6148883A88220F507E6A8835E
:0C0FCC0075830022E280F7E49322E0220B
:00000001FF
